{
  "_format": "hh-sol-artifact-1",
  "contractName": "NowMeta2",
  "sourceName": "contracts/TOKEN2.sol",
  "abi": [
    {
      "inputs": [
        {
          "internalType": "address",
          "name": "_router",
          "type": "address"
        }
      ],
      "stateMutability": "nonpayable",
      "type": "constructor"
    },
    {
      "anonymous": false,
      "inputs": [
        {
          "indexed": true,
          "internalType": "address",
          "name": "owner",
          "type": "address"
        },
        {
          "indexed": true,
          "internalType": "address",
          "name": "spender",
          "type": "address"
        },
        {
          "indexed": false,
          "internalType": "uint256",
          "name": "value",
          "type": "uint256"
        }
      ],
      "name": "Approval",
      "type": "event"
    },
    {
      "anonymous": false,
      "inputs": [
        {
          "indexed": true,
          "internalType": "address",
          "name": "previousOwner",
          "type": "address"
        },
        {
          "indexed": true,
          "internalType": "address",
          "name": "newOwner",
          "type": "address"
        }
      ],
      "name": "OwnershipTransferred",
      "type": "event"
    },
    {
      "anonymous": false,
      "inputs": [
        {
          "indexed": false,
          "internalType": "uint256",
          "name": "tokensSwapped",
          "type": "uint256"
        },
        {
          "indexed": false,
          "internalType": "uint256",
          "name": "ethReceived",
          "type": "uint256"
        },
        {
          "indexed": false,
          "internalType": "uint256",
          "name": "tokensIntoLiqudity",
          "type": "uint256"
        }
      ],
      "name": "SwapAndLiquify",
      "type": "event"
    },
    {
      "anonymous": false,
      "inputs": [
        {
          "indexed": false,
          "internalType": "bool",
          "name": "enabled",
          "type": "bool"
        }
      ],
      "name": "SwapAndLiquifyEnabledUpdated",
      "type": "event"
    },
    {
      "anonymous": false,
      "inputs": [
        {
          "indexed": true,
          "internalType": "address",
          "name": "from",
          "type": "address"
        },
        {
          "indexed": true,
          "internalType": "address",
          "name": "to",
          "type": "address"
        },
        {
          "indexed": false,
          "internalType": "uint256",
          "name": "value",
          "type": "uint256"
        }
      ],
      "name": "Transfer",
      "type": "event"
    },
    {
      "inputs": [],
      "name": "_burnFee",
      "outputs": [
        {
          "internalType": "uint256",
          "name": "",
          "type": "uint256"
        }
      ],
      "stateMutability": "view",
      "type": "function"
    },
    {
      "inputs": [],
      "name": "_burnFeeTotal",
      "outputs": [
        {
          "internalType": "uint256",
          "name": "",
          "type": "uint256"
        }
      ],
      "stateMutability": "view",
      "type": "function"
    },
    {
      "inputs": [],
      "name": "_charityFee",
      "outputs": [
        {
          "internalType": "uint256",
          "name": "",
          "type": "uint256"
        }
      ],
      "stateMutability": "view",
      "type": "function"
    },
    {
      "inputs": [],
      "name": "_charityFeeTotal",
      "outputs": [
        {
          "internalType": "uint256",
          "name": "",
          "type": "uint256"
        }
      ],
      "stateMutability": "view",
      "type": "function"
    },
    {
      "inputs": [],
      "name": "_feeDecimal",
      "outputs": [
        {
          "internalType": "uint256",
          "name": "",
          "type": "uint256"
        }
      ],
      "stateMutability": "view",
      "type": "function"
    },
    {
      "inputs": [],
      "name": "_liquidityFee",
      "outputs": [
        {
          "internalType": "uint256",
          "name": "",
          "type": "uint256"
        }
      ],
      "stateMutability": "view",
      "type": "function"
    },
    {
      "inputs": [],
      "name": "_liquidityFeeTotal",
      "outputs": [
        {
          "internalType": "uint256",
          "name": "",
          "type": "uint256"
        }
      ],
      "stateMutability": "view",
      "type": "function"
    },
    {
      "inputs": [],
      "name": "_marketingFee",
      "outputs": [
        {
          "internalType": "uint256",
          "name": "",
          "type": "uint256"
        }
      ],
      "stateMutability": "view",
      "type": "function"
    },
    {
      "inputs": [],
      "name": "_marketingFeeTotal",
      "outputs": [
        {
          "internalType": "uint256",
          "name": "",
          "type": "uint256"
        }
      ],
      "stateMutability": "view",
      "type": "function"
    },
    {
      "inputs": [],
      "name": "_taxFee",
      "outputs": [
        {
          "internalType": "uint256",
          "name": "",
          "type": "uint256"
        }
      ],
      "stateMutability": "view",
      "type": "function"
    },
    {
      "inputs": [],
      "name": "_taxFeeTotal",
      "outputs": [
        {
          "internalType": "uint256",
          "name": "",
          "type": "uint256"
        }
      ],
      "stateMutability": "view",
      "type": "function"
    },
    {
      "inputs": [
        {
          "internalType": "address",
          "name": "owner",
          "type": "address"
        },
        {
          "internalType": "address",
          "name": "spender",
          "type": "address"
        }
      ],
      "name": "allowance",
      "outputs": [
        {
          "internalType": "uint256",
          "name": "",
          "type": "uint256"
        }
      ],
      "stateMutability": "view",
      "type": "function"
    },
    {
      "inputs": [
        {
          "internalType": "address",
          "name": "spender",
          "type": "address"
        },
        {
          "internalType": "uint256",
          "name": "amount",
          "type": "uint256"
        }
      ],
      "name": "approve",
      "outputs": [
        {
          "internalType": "bool",
          "name": "",
          "type": "bool"
        }
      ],
      "stateMutability": "nonpayable",
      "type": "function"
    },
    {
      "inputs": [
        {
          "internalType": "address",
          "name": "account",
          "type": "address"
        }
      ],
      "name": "balanceOf",
      "outputs": [
        {
          "internalType": "uint256",
          "name": "",
          "type": "uint256"
        }
      ],
      "stateMutability": "view",
      "type": "function"
    },
    {
      "inputs": [],
      "name": "charityWallet",
      "outputs": [
        {
          "internalType": "address",
          "name": "",
          "type": "address"
        }
      ],
      "stateMutability": "view",
      "type": "function"
    },
    {
      "inputs": [],
      "name": "decimals",
      "outputs": [
        {
          "internalType": "uint8",
          "name": "",
          "type": "uint8"
        }
      ],
      "stateMutability": "view",
      "type": "function"
    },
    {
      "inputs": [
        {
          "internalType": "address",
          "name": "spender",
          "type": "address"
        },
        {
          "internalType": "uint256",
          "name": "subtractedValue",
          "type": "uint256"
        }
      ],
      "name": "decreaseAllowance",
      "outputs": [
        {
          "internalType": "bool",
          "name": "",
          "type": "bool"
        }
      ],
      "stateMutability": "nonpayable",
      "type": "function"
    },
    {
      "inputs": [
        {
          "internalType": "address",
          "name": "account",
          "type": "address"
        }
      ],
      "name": "excludeAccount",
      "outputs": [],
      "stateMutability": "nonpayable",
      "type": "function"
    },
    {
      "inputs": [
        {
          "internalType": "address",
          "name": "account",
          "type": "address"
        }
      ],
      "name": "includeAccount",
      "outputs": [],
      "stateMutability": "nonpayable",
      "type": "function"
    },
    {
      "inputs": [
        {
          "internalType": "address",
          "name": "spender",
          "type": "address"
        },
        {
          "internalType": "uint256",
          "name": "addedValue",
          "type": "uint256"
        }
      ],
      "name": "increaseAllowance",
      "outputs": [
        {
          "internalType": "bool",
          "name": "",
          "type": "bool"
        }
      ],
      "stateMutability": "nonpayable",
      "type": "function"
    },
    {
      "inputs": [
        {
          "internalType": "address",
          "name": "account",
          "type": "address"
        }
      ],
      "name": "isExcluded",
      "outputs": [
        {
          "internalType": "bool",
          "name": "",
          "type": "bool"
        }
      ],
      "stateMutability": "view",
      "type": "function"
    },
    {
      "inputs": [],
      "name": "isTaxActive",
      "outputs": [
        {
          "internalType": "bool",
          "name": "",
          "type": "bool"
        }
      ],
      "stateMutability": "view",
      "type": "function"
    },
    {
      "inputs": [],
      "name": "marketingWallet",
      "outputs": [
        {
          "internalType": "address",
          "name": "",
          "type": "address"
        }
      ],
      "stateMutability": "view",
      "type": "function"
    },
    {
      "inputs": [],
      "name": "maxTxAmount",
      "outputs": [
        {
          "internalType": "uint256",
          "name": "",
          "type": "uint256"
        }
      ],
      "stateMutability": "view",
      "type": "function"
    },
    {
      "inputs": [],
      "name": "minTokensBeforeSwap",
      "outputs": [
        {
          "internalType": "uint256",
          "name": "",
          "type": "uint256"
        }
      ],
      "stateMutability": "view",
      "type": "function"
    },
    {
      "inputs": [],
      "name": "name",
      "outputs": [
        {
          "internalType": "string",
          "name": "",
          "type": "string"
        }
      ],
      "stateMutability": "view",
      "type": "function"
    },
    {
      "inputs": [],
      "name": "owner",
      "outputs": [
        {
          "internalType": "address",
          "name": "",
          "type": "address"
        }
      ],
      "stateMutability": "view",
      "type": "function"
    },
    {
      "inputs": [
        {
          "internalType": "uint256",
          "name": "tokenAmount",
          "type": "uint256"
        },
        {
          "internalType": "bool",
          "name": "deductTransferFee",
          "type": "bool"
        }
      ],
      "name": "reflectionFromToken",
      "outputs": [
        {
          "internalType": "uint256",
          "name": "",
          "type": "uint256"
        }
      ],
      "stateMutability": "view",
      "type": "function"
    },
    {
      "inputs": [],
      "name": "renounceOwnership",
      "outputs": [],
      "stateMutability": "nonpayable",
      "type": "function"
    },
    {
      "inputs": [
        {
          "internalType": "uint256",
          "name": "fee",
          "type": "uint256"
        }
      ],
      "name": "setBurnFee",
      "outputs": [],
      "stateMutability": "nonpayable",
      "type": "function"
    },
    {
      "inputs": [
        {
          "internalType": "uint256",
          "name": "fee",
          "type": "uint256"
        }
      ],
      "name": "setCharityFee",
      "outputs": [],
      "stateMutability": "nonpayable",
      "type": "function"
    },
    {
      "inputs": [
        {
          "internalType": "address",
          "name": "account",
          "type": "address"
        }
      ],
      "name": "setCharityWallet",
      "outputs": [],
      "stateMutability": "nonpayable",
      "type": "function"
    },
    {
      "inputs": [
        {
          "internalType": "uint256",
          "name": "fee",
          "type": "uint256"
        }
      ],
      "name": "setLiquidityFee",
      "outputs": [],
      "stateMutability": "nonpayable",
      "type": "function"
    },
    {
      "inputs": [
        {
          "internalType": "uint256",
          "name": "fee",
          "type": "uint256"
        }
      ],
      "name": "setMarketingFee",
      "outputs": [],
      "stateMutability": "nonpayable",
      "type": "function"
    },
    {
      "inputs": [
        {
          "internalType": "address",
          "name": "account",
          "type": "address"
        }
      ],
      "name": "setMarketingWallet",
      "outputs": [],
      "stateMutability": "nonpayable",
      "type": "function"
    },
    {
      "inputs": [
        {
          "internalType": "uint256",
          "name": "amount",
          "type": "uint256"
        }
      ],
      "name": "setMaxTxAmount",
      "outputs": [],
      "stateMutability": "nonpayable",
      "type": "function"
    },
    {
      "inputs": [
        {
          "internalType": "uint256",
          "name": "amount",
          "type": "uint256"
        }
      ],
      "name": "setMinTokensBeforeSwap",
      "outputs": [],
      "stateMutability": "nonpayable",
      "type": "function"
    },
    {
      "inputs": [
        {
          "internalType": "address",
          "name": "pair",
          "type": "address"
        }
      ],
      "name": "setPair",
      "outputs": [],
      "stateMutability": "nonpayable",
      "type": "function"
    },
    {
      "inputs": [
        {
          "internalType": "bool",
          "name": "enabled",
          "type": "bool"
        }
      ],
      "name": "setSwapAndLiquifyEnabled",
      "outputs": [],
      "stateMutability": "nonpayable",
      "type": "function"
    },
    {
      "inputs": [
        {
          "internalType": "bool",
          "name": "value",
          "type": "bool"
        }
      ],
      "name": "setTaxActive",
      "outputs": [],
      "stateMutability": "nonpayable",
      "type": "function"
    },
    {
      "inputs": [
        {
          "internalType": "uint256",
          "name": "fee",
          "type": "uint256"
        }
      ],
      "name": "setTaxFee",
      "outputs": [],
      "stateMutability": "nonpayable",
      "type": "function"
    },
    {
      "inputs": [
        {
          "internalType": "address",
          "name": "account",
          "type": "address"
        },
        {
          "internalType": "bool",
          "name": "value",
          "type": "bool"
        }
      ],
      "name": "setTaxless",
      "outputs": [],
      "stateMutability": "nonpayable",
      "type": "function"
    },
    {
      "inputs": [],
      "name": "swapAndLiquifyEnabled",
      "outputs": [
        {
          "internalType": "bool",
          "name": "",
          "type": "bool"
        }
      ],
      "stateMutability": "view",
      "type": "function"
    },
    {
      "inputs": [],
      "name": "symbol",
      "outputs": [
        {
          "internalType": "string",
          "name": "",
          "type": "string"
        }
      ],
      "stateMutability": "view",
      "type": "function"
    },
    {
      "inputs": [
        {
          "internalType": "uint256",
          "name": "reflectionAmount",
          "type": "uint256"
        }
      ],
      "name": "tokenFromReflection",
      "outputs": [
        {
          "internalType": "uint256",
          "name": "",
          "type": "uint256"
        }
      ],
      "stateMutability": "view",
      "type": "function"
    },
    {
      "inputs": [],
      "name": "totalSupply",
      "outputs": [
        {
          "internalType": "uint256",
          "name": "",
          "type": "uint256"
        }
      ],
      "stateMutability": "view",
      "type": "function"
    },
    {
      "inputs": [
        {
          "internalType": "address",
          "name": "recipient",
          "type": "address"
        },
        {
          "internalType": "uint256",
          "name": "amount",
          "type": "uint256"
        }
      ],
      "name": "transfer",
      "outputs": [
        {
          "internalType": "bool",
          "name": "",
          "type": "bool"
        }
      ],
      "stateMutability": "nonpayable",
      "type": "function"
    },
    {
      "inputs": [
        {
          "internalType": "address",
          "name": "sender",
          "type": "address"
        },
        {
          "internalType": "address",
          "name": "recipient",
          "type": "address"
        },
        {
          "internalType": "uint256",
          "name": "amount",
          "type": "uint256"
        }
      ],
      "name": "transferFrom",
      "outputs": [
        {
          "internalType": "bool",
          "name": "",
          "type": "bool"
        }
      ],
      "stateMutability": "nonpayable",
      "type": "function"
    },
    {
      "inputs": [
        {
          "internalType": "address",
          "name": "newOwner",
          "type": "address"
        }
      ],
      "name": "transferOwnership",
      "outputs": [],
      "stateMutability": "nonpayable",
      "type": "function"
    },
    {
      "inputs": [],
      "name": "uniswapV2Pair",
      "outputs": [
        {
          "internalType": "address",
          "name": "",
          "type": "address"
        }
      ],
      "stateMutability": "view",
      "type": "function"
    },
    {
      "inputs": [],
      "name": "uniswapV2Router",
      "outputs": [
        {
          "internalType": "contract IUniswapV2Router02",
          "name": "",
          "type": "address"
        }
      ],
      "stateMutability": "view",
      "type": "function"
    },
    {
      "stateMutability": "payable",
      "type": "receive"
    }
  ],
  "bytecode": "0x60c060405260096080819052682737bb9026b2ba309960b91b60a09081526200002c91600191906200043a565b50604080518082019091526006808252652726a2aa209960d11b60209092019182526200005c916002916200043a565b506003805460ff191660081790556c7e37be2022c0914b2680000000600781905560001906196008556002600c5560c8600d55610190600e8190556000600f5560108190556011556018805460ff60b01b1960ff60a01b19909116600160a01b1716600160b01b17905560075460195564e8d4a51000601a55348015620000e257600080fd5b506040516200337b3803806200337b833981810160405260208110156200010857600080fd5b505160006200011f6001600160e01b036200043516565b600080546001600160a01b0319166001600160a01b0383169081178255604051929350917f8be0079c531659141344cd1fd0a4f28419497f9722a3daafe3b4186f6b6457e0908290a3506000819050806001600160a01b031663c45a01556040518163ffffffff1660e01b815260040160206040518083038186803b158015620001a857600080fd5b505afa158015620001bd573d6000803e3d6000fd5b505050506040513d6020811015620001d457600080fd5b5051604080516315ab88c960e31b815290516001600160a01b039283169263c9c653969230929186169163ad5c464891600480820192602092909190829003018186803b1580156200022557600080fd5b505afa1580156200023a573d6000803e3d6000fd5b505050506040513d60208110156200025157600080fd5b5051604080516001600160e01b031960e086901b1681526001600160a01b0393841660048201529290911660248301525160448083019260209291908290030181600087803b158015620002a457600080fd5b505af1158015620002b9573d6000803e3d6000fd5b505050506040513d6020811015620002d057600080fd5b5051601c80546001600160a01b039283166001600160a01b031991821617909155601b8054928416928216929092179091556017805482167373a0dbdb8f6ca6c853201c1e38114e6b5f79c29217905560188054909116739108faa37aed3dac0e89238ebe16c08373457469179055600160096000620003586001600160e01b036200043516565b6001600160a01b0316815260208082019290925260409081016000908120805494151560ff1995861617905530815260099092528120805490921660011790915560085490600490620003b36001600160e01b036200043516565b6001600160a01b03168152602081019190915260400160002055620003e06001600160e01b036200043516565b6001600160a01b031660006001600160a01b03167fddf252ad1be2c89b69c2b068fc378daa952ba7f163c4a11628f55a4df523b3ef6007546040518082815260200191505060405180910390a35050620004dc565b335b90565b828054600181600116156101000203166002900490600052602060002090601f016020900481019282601f106200047d57805160ff1916838001178555620004ad565b82800160010185558215620004ad579182015b82811115620004ad57825182559160200191906001019062000490565b50620004bb929150620004bf565b5090565b6200043791905b80821115620004bb5760008155600101620004c6565b612e8f80620004ec6000396000f3fe6080604052600436106103385760003560e01c80635d098b38116101b05780639d46cf8a116100ec578063cba0e99611610095578063ec28438a1161006f578063ec28438a14610a6c578063f2cc0c1814610a96578063f2fde38b14610ac9578063f84354f114610afc5761033f565b8063cba0e996146109e9578063dd62ed3e14610a1c578063e5d41c6b14610a575761033f565b8063c0b0fda2116100c6578063c0b0fda21461097e578063c4081a4c14610993578063c49b9a80146109bd5761033f565b80639d46cf8a146108f7578063a457c2d71461090c578063a9059cbb146109455761033f565b80637b208769116101595780638c0b5e22116101335780638c0b5e22146108a35780638da5cb5b146108b857806395d89b41146108cd57806398a0dd09146108e25761033f565b80637b208769146108465780637fd7e0311461085b5780638187f516146108705761033f565b806370a082311161018a57806370a08231146107e9578063715018a61461081c57806375f0a874146108315761033f565b80635d098b3814610777578063625e764c146107aa5780636bc87c3a146107d45761033f565b8063313ce5671161027f57806340f8007a1161022857806348a464731161020257806348a46473146106f957806349bd5a5e146107235780634a74bb02146107385780634bf2c7c91461074d5761033f565b806340f8007a146106775780634549b0391461068c57806347f2dc5b146106be5761033f565b806335837f9e1161025957806335837f9e1461061457806339509351146106295780633b124fe7146106625761033f565b8063313ce567146105aa578063355bc60b146105d5578063357bf15c146105ea5761033f565b806320c7c596116102e15780632d838119116102bb5780632d838119146105215780632ffc16281461054b57806330563bd7146105775761033f565b806320c7c5961461049d57806322976e0d146104c957806323b872dd146104de5761033f565b80631694505e116103125780631694505e1461044257806318160ddd1461047357806319db457d146104885761033f565b806306fdde0314610344578063095ea7b3146103ce5780630d9a52191461041b5761033f565b3661033f57005b600080fd5b34801561035057600080fd5b50610359610b2f565b6040805160208082528351818301528351919283929083019185019080838360005b8381101561039357818101518382015260200161037b565b50505050905090810190601f1680156103c05780820380516001836020036101000a031916815260200191505b509250505060405180910390f35b3480156103da57600080fd5b50610407600480360360408110156103f157600080fd5b506001600160a01b038135169060200135610bc5565b604080519115158252519081900360200190f35b34801561042757600080fd5b50610430610be3565b60408051918252519081900360200190f35b34801561044e57600080fd5b50610457610be9565b604080516001600160a01b039092168252519081900360200190f35b34801561047f57600080fd5b50610430610bf8565b34801561049457600080fd5b50610430610bfe565b3480156104a957600080fd5b506104c7600480360360208110156104c057600080fd5b5035610c04565b005b3480156104d557600080fd5b50610430610c61565b3480156104ea57600080fd5b506104076004803603606081101561050157600080fd5b506001600160a01b03813581169160208101359091169060400135610c67565b34801561052d57600080fd5b506104306004803603602081101561054457600080fd5b5035610cf4565b34801561055757600080fd5b506104c76004803603602081101561056e57600080fd5b50351515610d5c565b34801561058357600080fd5b506104c76004803603602081101561059a57600080fd5b50356001600160a01b0316610ded565b3480156105b657600080fd5b506105bf610e67565b6040805160ff9092168252519081900360200190f35b3480156105e157600080fd5b50610430610e70565b3480156105f657600080fd5b506104c76004803603602081101561060d57600080fd5b5035610e76565b34801561062057600080fd5b50610430610ed3565b34801561063557600080fd5b506104076004803603604081101561064c57600080fd5b506001600160a01b038135169060200135610ed9565b34801561066e57600080fd5b50610430610f2d565b34801561068357600080fd5b50610430610f33565b34801561069857600080fd5b50610430600480360360408110156106af57600080fd5b50803590602001351515610f39565b3480156106ca57600080fd5b506104c7600480360360408110156106e157600080fd5b506001600160a01b038135169060200135151561100a565b34801561070557600080fd5b506104c76004803603602081101561071c57600080fd5b503561108d565b34801561072f57600080fd5b506104576110ea565b34801561074457600080fd5b506104076110f9565b34801561075957600080fd5b506104c76004803603602081101561077057600080fd5b5035611109565b34801561078357600080fd5b506104c76004803603602081101561079a57600080fd5b50356001600160a01b0316611166565b3480156107b657600080fd5b506104c7600480360360208110156107cd57600080fd5b50356111e0565b3480156107e057600080fd5b5061043061123d565b3480156107f557600080fd5b506104306004803603602081101561080c57600080fd5b50356001600160a01b0316611243565b34801561082857600080fd5b506104c76112a5565b34801561083d57600080fd5b50610457611347565b34801561085257600080fd5b50610457611356565b34801561086757600080fd5b50610430611365565b34801561087c57600080fd5b506104c76004803603602081101561089357600080fd5b50356001600160a01b031661136b565b3480156108af57600080fd5b506104306113e5565b3480156108c457600080fd5b506104576113eb565b3480156108d957600080fd5b506103596113fa565b3480156108ee57600080fd5b50610407611458565b34801561090357600080fd5b50610430611468565b34801561091857600080fd5b506104076004803603604081101561092f57600080fd5b506001600160a01b03813516906020013561146e565b34801561095157600080fd5b506104076004803603604081101561096857600080fd5b506001600160a01b0381351690602001356114dc565b34801561098a57600080fd5b506104306114f0565b34801561099f57600080fd5b506104c7600480360360208110156109b657600080fd5b50356114f6565b3480156109c957600080fd5b506104c7600480360360208110156109e057600080fd5b50351515611553565b3480156109f557600080fd5b5061040760048036036020811015610a0c57600080fd5b50356001600160a01b0316611619565b348015610a2857600080fd5b5061043060048036036040811015610a3f57600080fd5b506001600160a01b0381358116916020013516611637565b348015610a6357600080fd5b50610430611662565b348015610a7857600080fd5b506104c760048036036020811015610a8f57600080fd5b5035611668565b348015610aa257600080fd5b506104c760048036036020811015610ab957600080fd5b50356001600160a01b03166116c5565b348015610ad557600080fd5b506104c760048036036020811015610aec57600080fd5b50356001600160a01b0316611882565b348015610b0857600080fd5b506104c760048036036020811015610b1f57600080fd5b50356001600160a01b031661197a565b60018054604080516020601f60026000196101008789161502019095169490940493840181900481028201810190925282815260609390929091830182828015610bba5780601f10610b8f57610100808354040283529160200191610bba565b820191906000526020600020905b815481529060010190602001808311610b9d57829003601f168201915b505050505090505b90565b6000610bd9610bd2611b25565b8484611b29565b5060015b92915050565b60135481565b601b546001600160a01b031681565b60075490565b600c5481565b610c0c611b25565b6000546001600160a01b03908116911614610c5c576040805162461bcd60e51b81526020600482018190526024820152600080516020612d58833981519152604482015290519081900360640190fd5b601155565b60105481565b6000610c74848484611c15565b610cea84610c80611b25565b610ce585604051806060016040528060288152602001612d30602891396001600160a01b038a16600090815260066020526040812090610cbe611b25565b6001600160a01b03168152602081019190915260400160002054919063ffffffff611ff116565b611b29565b5060019392505050565b6000600854821115610d375760405162461bcd60e51b815260040180806020018281038252602a815260200180612c9d602a913960400191505060405180910390fd5b6000610d41612088565b9050610d53838263ffffffff61222316565b9150505b919050565b610d64611b25565b6000546001600160a01b03908116911614610db4576040805162461bcd60e51b81526020600482018190526024820152600080516020612d58833981519152604482015290519081900360640190fd5b60188054911515600160a01b027fffffffffffffffffffffff00ffffffffffffffffffffffffffffffffffffffff909216919091179055565b610df5611b25565b6000546001600160a01b03908116911614610e45576040805162461bcd60e51b81526020600482018190526024820152600080516020612d58833981519152604482015290519081900360640190fd5b601880546001600160a01b0319166001600160a01b0392909216919091179055565b60035460ff1690565b60125481565b610e7e611b25565b6000546001600160a01b03908116911614610ece576040805162461bcd60e51b81526020600482018190526024820152600080516020612d58833981519152604482015290519081900360640190fd5b600e55565b60165481565b6000610bd9610ee6611b25565b84610ce58560066000610ef7611b25565b6001600160a01b03908116825260208083019390935260409182016000908120918c16815292529020549063ffffffff61226c16565b600d5481565b60115481565b6000600754831115610f92576040805162461bcd60e51b815260206004820152601f60248201527f416d6f756e74206d757374206265206c657373207468616e20737570706c7900604482015290519081900360640190fd5b81610fb657610faf610fa2612088565b849063ffffffff6122c616565b9050610bdd565b610faf610fc1612088565b610ffe610ff1600c54600a0a600201610fe5600d54896122c690919063ffffffff16565b9063ffffffff61222316565b869063ffffffff61231f16565b9063ffffffff6122c616565b611012611b25565b6000546001600160a01b03908116911614611062576040805162461bcd60e51b81526020600482018190526024820152600080516020612d58833981519152604482015290519081900360640190fd5b6001600160a01b03919091166000908152600960205260409020805460ff1916911515919091179055565b611095611b25565b6000546001600160a01b039081169116146110e5576040805162461bcd60e51b81526020600482018190526024820152600080516020612d58833981519152604482015290519081900360640190fd5b601a55565b601c546001600160a01b031681565b601854600160b01b900460ff1681565b611111611b25565b6000546001600160a01b03908116911614611161576040805162461bcd60e51b81526020600482018190526024820152600080516020612d58833981519152604482015290519081900360640190fd5b600f55565b61116e611b25565b6000546001600160a01b039081169116146111be576040805162461bcd60e51b81526020600482018190526024820152600080516020612d58833981519152604482015290519081900360640190fd5b601780546001600160a01b0319166001600160a01b0392909216919091179055565b6111e8611b25565b6000546001600160a01b03908116911614611238576040805162461bcd60e51b81526020600482018190526024820152600080516020612d58833981519152604482015290519081900360640190fd5b601055565b600e5481565b6001600160a01b0381166000908152600a602052604081205460ff161561128357506001600160a01b038116600090815260056020526040902054610d57565b6001600160a01b038216600090815260046020526040902054610bdd90610cf4565b6112ad611b25565b6000546001600160a01b039081169116146112fd576040805162461bcd60e51b81526020600482018190526024820152600080516020612d58833981519152604482015290519081900360640190fd5b600080546040516001600160a01b03909116907f8be0079c531659141344cd1fd0a4f28419497f9722a3daafe3b4186f6b6457e0908390a3600080546001600160a01b0319169055565b6017546001600160a01b031681565b6018546001600160a01b031681565b60155481565b611373611b25565b6000546001600160a01b039081169116146113c3576040805162461bcd60e51b81526020600482018190526024820152600080516020612d58833981519152604482015290519081900360640190fd5b601c80546001600160a01b0319166001600160a01b0392909216919091179055565b60195481565b6000546001600160a01b031690565b60028054604080516020601f6000196101006001871615020190941685900493840181900481028201810190925282815260609390929091830182828015610bba5780601f10610b8f57610100808354040283529160200191610bba565b601854600160a01b900460ff1681565b60145481565b6000610bd961147b611b25565b84610ce585604051806060016040528060258152602001612e3560259139600660006114a5611b25565b6001600160a01b03908116825260208083019390935260409182016000908120918d1681529252902054919063ffffffff611ff116565b6000610bd96114e9611b25565b8484611c15565b600f5481565b6114fe611b25565b6000546001600160a01b0390811691161461154e576040805162461bcd60e51b81526020600482018190526024820152600080516020612d58833981519152604482015290519081900360640190fd5b600d55565b61155b611b25565b6000546001600160a01b039081169116146115ab576040805162461bcd60e51b81526020600482018190526024820152600080516020612d58833981519152604482015290519081900360640190fd5b60188054821515600160b01b81027fffffffffffffffffff00ffffffffffffffffffffffffffffffffffffffffffff9092169190911790915560408051918252517f53726dfcaf90650aa7eb35524f4d3220f07413c8d6cb404cc8c18bf5591bc1599181900360200190a150565b6001600160a01b03166000908152600a602052604090205460ff1690565b6001600160a01b03918216600090815260066020908152604080832093909416825291909152205490565b601a5481565b611670611b25565b6000546001600160a01b039081169116146116c0576040805162461bcd60e51b81526020600482018190526024820152600080516020612d58833981519152604482015290519081900360640190fd5b601955565b6116cd611b25565b6000546001600160a01b0390811691161461171d576040805162461bcd60e51b81526020600482018190526024820152600080516020612d58833981519152604482015290519081900360640190fd5b601b546001600160a01b038281169116141561176a5760405162461bcd60e51b8152600401808060200182810382526029815260200180612da16029913960400191505060405180910390fd5b6001600160a01b0381166000908152600a602052604090205460ff16156117c25760405162461bcd60e51b8152600401808060200182810382526022815260200180612c7b6022913960400191505060405180910390fd5b6001600160a01b0381166000908152600460205260409020541561181c576001600160a01b03811660009081526004602052604090205461180290610cf4565b6001600160a01b0382166000908152600560205260409020555b6001600160a01b03166000818152600a60205260408120805460ff19166001908117909155600b805491820181559091527f0175b7a638427703f0dbe7bb9bbf987a2551717b34e79f33b5b1008d1fa01db90180546001600160a01b0319169091179055565b61188a611b25565b6000546001600160a01b039081169116146118da576040805162461bcd60e51b81526020600482018190526024820152600080516020612d58833981519152604482015290519081900360640190fd5b6001600160a01b03811661191f5760405162461bcd60e51b8152600401808060200182810382526026815260200180612cc76026913960400191505060405180910390fd5b600080546040516001600160a01b03808516939216917f8be0079c531659141344cd1fd0a4f28419497f9722a3daafe3b4186f6b6457e091a3600080546001600160a01b0319166001600160a01b0392909216919091179055565b611982611b25565b6000546001600160a01b039081169116146119d2576040805162461bcd60e51b81526020600482018190526024820152600080516020612d58833981519152604482015290519081900360640190fd5b6001600160a01b0381166000908152600a602052604090205460ff16611a295760405162461bcd60e51b8152600401808060200182810382526022815260200180612e136022913960400191505060405180910390fd5b60005b600b54811015611b2157816001600160a01b0316600b8281548110611a4d57fe5b6000918252602090912001546001600160a01b03161415611b1957600b80546000198101908110611a7a57fe5b600091825260209091200154600b80546001600160a01b039092169183908110611aa057fe5b600091825260208083209190910180546001600160a01b0319166001600160a01b039485161790559184168152600582526040808220829055600a90925220805460ff19169055600b805480611af257fe5b600082815260209020810160001990810180546001600160a01b0319169055019055611b21565b600101611a2c565b5050565b3390565b6001600160a01b038316611b6e5760405162461bcd60e51b8152600401808060200182810382526024815260200180612def6024913960400191505060405180910390fd5b6001600160a01b038216611bb35760405162461bcd60e51b8152600401808060200182810382526022815260200180612ced6022913960400191505060405180910390fd5b6001600160a01b03808416600081815260066020908152604080832094871680845294825291829020859055815185815291517f8c5be1e5ebec7d5bd14f71427d1e84f3dd0314c0f7b2291e5b200ac8c7c3b9259281900390910190a3505050565b6001600160a01b038316611c5a5760405162461bcd60e51b8152600401808060200182810382526025815260200180612dca6025913960400191505060405180910390fd5b6001600160a01b038216611c9f5760405162461bcd60e51b8152600401808060200182810382526023815260200180612c586023913960400191505060405180910390fd5b60008111611cde5760405162461bcd60e51b8152600401808060200182810382526029815260200180612d786029913960400191505060405180910390fd5b601954811115611d35576040805162461bcd60e51b815260206004820152601860248201527f5472616e73666572204c696d6974206578636565646564210000000000000000604482015290519081900360640190fd5b6000611d4030611243565b601a5460185491925082101590600160a81b900460ff16158015611d615750805b8015611d7b5750601c546001600160a01b03868116911614155b8015611d905750601854600160b01b900460ff165b15611d9e57611d9e82612361565b826000611da9612088565b601854909150600160a01b900460ff168015611deb575060096000611dcc611b25565b6001600160a01b0316815260208101919091526040016000205460ff16155b8015611e1057506001600160a01b03861660009081526009602052604090205460ff16155b8015611e265750601854600160a81b900460ff16155b15611e3957611e36878683612428565b91505b611e71611e4c868363ffffffff6122c616565b6001600160a01b0389166000908152600460205260409020549063ffffffff61231f16565b6001600160a01b038816600090815260046020526040902055611ec2611e9d838363ffffffff6122c616565b6001600160a01b0388166000908152600460205260409020549063ffffffff61226c16565b6001600160a01b03808816600090815260046020908152604080832094909455918a168152600a909152205460ff1615611f39576001600160a01b038716600090815260056020526040902054611f1f908663ffffffff61231f16565b6001600160a01b0388166000908152600560205260409020555b6001600160a01b0386166000908152600a602052604090205460ff1615611f9d576001600160a01b038616600090815260056020526040902054611f83908363ffffffff61226c16565b6001600160a01b0387166000908152600560205260409020555b856001600160a01b0316876001600160a01b03167fddf252ad1be2c89b69c2b068fc378daa952ba7f163c4a11628f55a4df523b3ef846040518082815260200191505060405180910390a350505050505050565b600081848411156120805760405162461bcd60e51b81526004018080602001828103825283818151815260200191508051906020019080838360005b8381101561204557818101518382015260200161202d565b50505050905090810190601f1680156120725780820380516001836020036101000a031916815260200191505b509250505060405180910390fd5b505050900390565b60085460075460009190825b600b548110156121d1578260046000600b84815481106120b057fe5b60009182526020808320909101546001600160a01b03168352820192909252604001902054118061211557508160056000600b84815481106120ee57fe5b60009182526020808320909101546001600160a01b03168352820192909252604001902054115b156121395760075460085461212f9163ffffffff61222316565b9350505050610bc2565b61217f60046000600b848154811061214d57fe5b60009182526020808320909101546001600160a01b03168352820192909252604001902054849063ffffffff61231f16565b92506121c760056000600b848154811061219557fe5b60009182526020808320909101546001600160a01b03168352820192909252604001902054839063ffffffff61231f16565b9150600101612094565b506007546008546121e79163ffffffff61222316565b82101561220c576007546008546122039163ffffffff61222316565b92505050610bc2565b61221c828263ffffffff61222316565b9250505090565b600061226583836040518060400160405280601a81526020017f536166654d6174683a206469766973696f6e206279207a65726f000000000000815250612941565b9392505050565b600082820183811015612265576040805162461bcd60e51b815260206004820152601b60248201527f536166654d6174683a206164646974696f6e206f766572666c6f770000000000604482015290519081900360640190fd5b6000826122d557506000610bdd565b828202828482816122e257fe5b04146122655760405162461bcd60e51b8152600401808060200182810382526021815260200180612d0f6021913960400191505060405180910390fd5b600061226583836040518060400160405280601e81526020017f536166654d6174683a207375627472616374696f6e206f766572666c6f770000815250611ff1565b6018805460ff60a81b1916600160a81b17905560195481111561238357506019545b600061239682600263ffffffff61222316565b905060006123aa838363ffffffff61231f16565b9050476123b6836129a6565b60006123c8478363ffffffff61231f16565b90506123d48382612b86565b604080518581526020810183905280820185905290517f17bbfb9a6069321b6ded73bd96327c9e6b7212a5cd51ff219cd61370acafb5619181900360600190a150506018805460ff60a81b19169055505050565b600d546000908390156124a9576000612458600c54600201600a0a610fe5600d54886122c690919063ffffffff16565b905061246a828263ffffffff61231f16565b915061248e61247f828663ffffffff6122c616565b6008549063ffffffff61231f16565b6008556012546124a4908263ffffffff61226c16565b601255505b600e54156125c45760006124d4600c54600201600a0a610fe5600e54886122c690919063ffffffff16565b90506124e6828263ffffffff61231f16565b91506125176124fb828663ffffffff6122c616565b306000908152600460205260409020549063ffffffff61226c16565b30600090815260046020908152604080832093909355600a9052205460ff161561256c573060009081526005602052604090205461255b908263ffffffff61226c16565b306000908152600560205260409020555b60145461257f908263ffffffff61226c16565b60145560408051828152905130916001600160a01b038916917fddf252ad1be2c89b69c2b068fc378daa952ba7f163c4a11628f55a4df523b3ef9181900360200190a3505b600f54156126895760006125ef600c54600201600a0a610fe5600f54886122c690919063ffffffff16565b9050612601828263ffffffff61231f16565b600754909250612617908263ffffffff61231f16565b60075561262d61247f828663ffffffff6122c616565b600855601354612643908263ffffffff61226c16565b6013556040805182815290516000916001600160a01b038916917fddf252ad1be2c89b69c2b068fc378daa952ba7f163c4a11628f55a4df523b3ef9181900360200190a3505b601054156127e15760006126b4600c54600201600a0a610fe5601054886122c690919063ffffffff16565b90506126c6828263ffffffff61231f16565b91506127026126db828663ffffffff6122c616565b6017546001600160a01b03166000908152600460205260409020549063ffffffff61226c16565b601780546001600160a01b0390811660009081526004602090815260408083209590955592549091168152600a909152205460ff1615612783576017546001600160a01b0316600090815260056020526040902054612767908263ffffffff61226c16565b6017546001600160a01b03166000908152600560205260409020555b601554612796908263ffffffff61226c16565b6015556017546040805183815290516001600160a01b03928316928916917fddf252ad1be2c89b69c2b068fc378daa952ba7f163c4a11628f55a4df523b3ef919081900360200190a3505b6011541561293957600061280c600c54600201600a0a610fe5601154886122c690919063ffffffff16565b905061281e828263ffffffff61231f16565b915061285a612833828663ffffffff6122c616565b6018546001600160a01b03166000908152600460205260409020549063ffffffff61226c16565b601880546001600160a01b0390811660009081526004602090815260408083209590955592549091168152600a909152205460ff16156128db576018546001600160a01b03166000908152600560205260409020546128bf908263ffffffff61226c16565b6018546001600160a01b03166000908152600560205260409020555b6016546128ee908263ffffffff61226c16565b6016556018546040805183815290516001600160a01b03928316928916917fddf252ad1be2c89b69c2b068fc378daa952ba7f163c4a11628f55a4df523b3ef919081900360200190a3505b949350505050565b600081836129905760405162461bcd60e51b815260206004820181815283516024840152835190928392604490910191908501908083836000831561204557818101518382015260200161202d565b50600083858161299c57fe5b0495945050505050565b604080516002808252606080830184529260208301908036833701905050905030816000815181106129d457fe5b6001600160a01b03928316602091820292909201810191909152601b54604080517fad5c46480000000000000000000000000000000000000000000000000000000081529051919093169263ad5c4648926004808301939192829003018186803b158015612a4157600080fd5b505afa158015612a55573d6000803e3d6000fd5b505050506040513d6020811015612a6b57600080fd5b5051815182906001908110612a7c57fe5b6001600160a01b039283166020918202929092010152601b54612aa29130911684611b29565b601b546040517f791ac947000000000000000000000000000000000000000000000000000000008152600481018481526000602483018190523060648401819052426084850181905260a060448601908152875160a487015287516001600160a01b039097169663791ac947968a968a9594939092909160c40190602080880191028083838b5b83811015612b41578181015183820152602001612b29565b505050509050019650505050505050600060405180830381600087803b158015612b6a57600080fd5b505af1158015612b7e573d6000803e3d6000fd5b505050505050565b601b54612b9e9030906001600160a01b031684611b29565b601b54604080517ff305d719000000000000000000000000000000000000000000000000000000008152306004820181905260248201869052600060448301819052606483015260848201524260a482015290516001600160a01b039092169163f305d71991849160c480830192606092919082900301818588803b158015612c2657600080fd5b505af1158015612c3a573d6000803e3d6000fd5b50505050506040513d6060811015612c5157600080fd5b5050505056fe45524332303a207472616e7366657220746f20746865207a65726f206164647265737345524332303a204163636f756e7420697320616c7265616479206578636c75646564416d6f756e74206d757374206265206c657373207468616e20746f74616c207265666c656374696f6e734f776e61626c653a206e6577206f776e657220697320746865207a65726f206164647265737345524332303a20617070726f766520746f20746865207a65726f2061646472657373536166654d6174683a206d756c7469706c69636174696f6e206f766572666c6f7745524332303a207472616e7366657220616d6f756e74206578636565647320616c6c6f77616e63654f776e61626c653a2063616c6c6572206973206e6f7420746865206f776e65725472616e7366657220616d6f756e74206d7573742062652067726561746572207468616e207a65726f45524332303a2057652063616e206e6f74206578636c75646520556e697377617020726f757465722e45524332303a207472616e736665722066726f6d20746865207a65726f206164647265737345524332303a20617070726f76652066726f6d20746865207a65726f206164647265737345524332303a204163636f756e7420697320616c726561647920696e636c7564656445524332303a2064656372656173656420616c6c6f77616e63652062656c6f77207a65726fa26469706673582212207ff25cadb72dc2a6f40f807d464486df5db9c235e636d21dcf7eff2d12aa706764736f6c63430006060033",
  "linkReferences": {},
  "deployedLinkReferences": {}
}